{
  "_format": "hh-sol-artifact-1",
  "contractName": "Hero",
  "sourceName": "contracts/Hero.sol",
  "abi": [
    {
      "inputs": [],
      "stateMutability": "nonpayable",
      "type": "constructor"
    },
    {
      "anonymous": false,
      "inputs": [
        {
          "indexed": true,
          "internalType": "address",
          "name": "owner",
          "type": "address"
        },
        {
          "indexed": true,
          "internalType": "address",
          "name": "approved",
          "type": "address"
        },
        {
          "indexed": true,
          "internalType": "uint256",
          "name": "tokenId",
          "type": "uint256"
        }
      ],
      "name": "Approval",
      "type": "event"
    },
    {
      "anonymous": false,
      "inputs": [
        {
          "indexed": true,
          "internalType": "address",
          "name": "owner",
          "type": "address"
        },
        {
          "indexed": true,
          "internalType": "address",
          "name": "operator",
          "type": "address"
        },
        {
          "indexed": false,
          "internalType": "bool",
          "name": "approved",
          "type": "bool"
        }
      ],
      "name": "ApprovalForAll",
      "type": "event"
    },
    {
      "anonymous": false,
      "inputs": [
        {
          "indexed": false,
          "internalType": "address",
          "name": "to",
          "type": "address"
        },
        {
          "indexed": false,
          "internalType": "uint256",
          "name": "hero_type",
          "type": "uint256"
        },
        {
          "indexed": false,
          "internalType": "uint256",
          "name": "tokenid",
          "type": "uint256"
        }
      ],
      "name": "Mint",
      "type": "event"
    },
    {
      "anonymous": false,
      "inputs": [
        {
          "indexed": true,
          "internalType": "address",
          "name": "previousOwner",
          "type": "address"
        },
        {
          "indexed": true,
          "internalType": "address",
          "name": "newOwner",
          "type": "address"
        }
      ],
      "name": "OwnershipTransferred",
      "type": "event"
    },
    {
      "anonymous": false,
      "inputs": [
        {
          "indexed": true,
          "internalType": "bytes32",
          "name": "role",
          "type": "bytes32"
        },
        {
          "indexed": true,
          "internalType": "bytes32",
          "name": "previousAdminRole",
          "type": "bytes32"
        },
        {
          "indexed": true,
          "internalType": "bytes32",
          "name": "newAdminRole",
          "type": "bytes32"
        }
      ],
      "name": "RoleAdminChanged",
      "type": "event"
    },
    {
      "anonymous": false,
      "inputs": [
        {
          "indexed": true,
          "internalType": "bytes32",
          "name": "role",
          "type": "bytes32"
        },
        {
          "indexed": true,
          "internalType": "address",
          "name": "account",
          "type": "address"
        },
        {
          "indexed": true,
          "internalType": "address",
          "name": "sender",
          "type": "address"
        }
      ],
      "name": "RoleGranted",
      "type": "event"
    },
    {
      "anonymous": false,
      "inputs": [
        {
          "indexed": true,
          "internalType": "bytes32",
          "name": "role",
          "type": "bytes32"
        },
        {
          "indexed": true,
          "internalType": "address",
          "name": "account",
          "type": "address"
        },
        {
          "indexed": true,
          "internalType": "address",
          "name": "sender",
          "type": "address"
        }
      ],
      "name": "RoleRevoked",
      "type": "event"
    },
    {
      "anonymous": false,
      "inputs": [
        {
          "indexed": true,
          "internalType": "address",
          "name": "from",
          "type": "address"
        },
        {
          "indexed": true,
          "internalType": "address",
          "name": "to",
          "type": "address"
        },
        {
          "indexed": true,
          "internalType": "uint256",
          "name": "tokenId",
          "type": "uint256"
        }
      ],
      "name": "Transfer",
      "type": "event"
    },
    {
      "inputs": [],
      "name": "DEFAULT_ADMIN_ROLE",
      "outputs": [
        {
          "internalType": "bytes32",
          "name": "",
          "type": "bytes32"
        }
      ],
      "stateMutability": "view",
      "type": "function"
    },
    {
      "inputs": [],
      "name": "MINTER_ROLE",
      "outputs": [
        {
          "internalType": "bytes32",
          "name": "",
          "type": "bytes32"
        }
      ],
      "stateMutability": "view",
      "type": "function"
    },
    {
      "inputs": [
        {
          "internalType": "address",
          "name": "to",
          "type": "address"
        },
        {
          "internalType": "uint256",
          "name": "tokenId",
          "type": "uint256"
        }
      ],
      "name": "approve",
      "outputs": [],
      "stateMutability": "nonpayable",
      "type": "function"
    },
    {
      "inputs": [
        {
          "internalType": "address",
          "name": "owner",
          "type": "address"
        }
      ],
      "name": "balanceOf",
      "outputs": [
        {
          "internalType": "uint256",
          "name": "",
          "type": "uint256"
        }
      ],
      "stateMutability": "view",
      "type": "function"
    },
    {
      "inputs": [
        {
          "internalType": "uint256",
          "name": "tokenId",
          "type": "uint256"
        }
      ],
      "name": "getApproved",
      "outputs": [
        {
          "internalType": "address",
          "name": "",
          "type": "address"
        }
      ],
      "stateMutability": "view",
      "type": "function"
    },
    {
      "inputs": [
        {
          "internalType": "bytes32",
          "name": "role",
          "type": "bytes32"
        }
      ],
      "name": "getRoleAdmin",
      "outputs": [
        {
          "internalType": "bytes32",
          "name": "",
          "type": "bytes32"
        }
      ],
      "stateMutability": "view",
      "type": "function"
    },
    {
      "inputs": [
        {
          "internalType": "bytes32",
          "name": "role",
          "type": "bytes32"
        },
        {
          "internalType": "uint256",
          "name": "index",
          "type": "uint256"
        }
      ],
      "name": "getRoleMember",
      "outputs": [
        {
          "internalType": "address",
          "name": "",
          "type": "address"
        }
      ],
      "stateMutability": "view",
      "type": "function"
    },
    {
      "inputs": [
        {
          "internalType": "bytes32",
          "name": "role",
          "type": "bytes32"
        }
      ],
      "name": "getRoleMemberCount",
      "outputs": [
        {
          "internalType": "uint256",
          "name": "",
          "type": "uint256"
        }
      ],
      "stateMutability": "view",
      "type": "function"
    },
    {
      "inputs": [
        {
          "internalType": "bytes32",
          "name": "role",
          "type": "bytes32"
        },
        {
          "internalType": "address",
          "name": "account",
          "type": "address"
        }
      ],
      "name": "grantRole",
      "outputs": [],
      "stateMutability": "nonpayable",
      "type": "function"
    },
    {
      "inputs": [
        {
          "internalType": "bytes32",
          "name": "role",
          "type": "bytes32"
        },
        {
          "internalType": "address",
          "name": "account",
          "type": "address"
        }
      ],
      "name": "hasRole",
      "outputs": [
        {
          "internalType": "bool",
          "name": "",
          "type": "bool"
        }
      ],
      "stateMutability": "view",
      "type": "function"
    },
    {
      "inputs": [
        {
          "internalType": "address",
          "name": "owner",
          "type": "address"
        },
        {
          "internalType": "address",
          "name": "operator",
          "type": "address"
        }
      ],
      "name": "isApprovedForAll",
      "outputs": [
        {
          "internalType": "bool",
          "name": "",
          "type": "bool"
        }
      ],
      "stateMutability": "view",
      "type": "function"
    },
    {
      "inputs": [
        {
          "internalType": "address",
          "name": "owner",
          "type": "address"
        }
      ],
      "name": "listTokenIds",
      "outputs": [
        {
          "internalType": "uint256[]",
          "name": "tokenIds",
          "type": "uint256[]"
        }
      ],
      "stateMutability": "view",
      "type": "function"
    },
    {
      "inputs": [
        {
          "internalType": "address",
          "name": "to",
          "type": "address"
        },
        {
          "internalType": "uint256",
          "name": "hero_type",
          "type": "uint256"
        }
      ],
      "name": "mint",
      "outputs": [
        {
          "internalType": "uint256",
          "name": "",
          "type": "uint256"
        }
      ],
      "stateMutability": "nonpayable",
      "type": "function"
    },
    {
      "inputs": [],
      "name": "name",
      "outputs": [
        {
          "internalType": "string",
          "name": "",
          "type": "string"
        }
      ],
      "stateMutability": "view",
      "type": "function"
    },
    {
      "inputs": [],
      "name": "owner",
      "outputs": [
        {
          "internalType": "address",
          "name": "",
          "type": "address"
        }
      ],
      "stateMutability": "view",
      "type": "function"
    },
    {
      "inputs": [
        {
          "internalType": "uint256",
          "name": "tokenId",
          "type": "uint256"
        }
      ],
      "name": "ownerOf",
      "outputs": [
        {
          "internalType": "address",
          "name": "",
          "type": "address"
        }
      ],
      "stateMutability": "view",
      "type": "function"
    },
    {
      "inputs": [],
      "name": "renounceOwnership",
      "outputs": [],
      "stateMutability": "nonpayable",
      "type": "function"
    },
    {
      "inputs": [
        {
          "internalType": "bytes32",
          "name": "role",
          "type": "bytes32"
        },
        {
          "internalType": "address",
          "name": "account",
          "type": "address"
        }
      ],
      "name": "renounceRole",
      "outputs": [],
      "stateMutability": "nonpayable",
      "type": "function"
    },
    {
      "inputs": [
        {
          "internalType": "bytes32",
          "name": "role",
          "type": "bytes32"
        },
        {
          "internalType": "address",
          "name": "account",
          "type": "address"
        }
      ],
      "name": "revokeRole",
      "outputs": [],
      "stateMutability": "nonpayable",
      "type": "function"
    },
    {
      "inputs": [
        {
          "internalType": "address",
          "name": "from",
          "type": "address"
        },
        {
          "internalType": "address",
          "name": "to",
          "type": "address"
        },
        {
          "internalType": "uint256",
          "name": "tokenId",
          "type": "uint256"
        }
      ],
      "name": "safeTransferFrom",
      "outputs": [],
      "stateMutability": "nonpayable",
      "type": "function"
    },
    {
      "inputs": [
        {
          "internalType": "address",
          "name": "from",
          "type": "address"
        },
        {
          "internalType": "address",
          "name": "to",
          "type": "address"
        },
        {
          "internalType": "uint256",
          "name": "tokenId",
          "type": "uint256"
        },
        {
          "internalType": "bytes",
          "name": "data",
          "type": "bytes"
        }
      ],
      "name": "safeTransferFrom",
      "outputs": [],
      "stateMutability": "nonpayable",
      "type": "function"
    },
    {
      "inputs": [
        {
          "internalType": "address",
          "name": "operator",
          "type": "address"
        },
        {
          "internalType": "bool",
          "name": "approved",
          "type": "bool"
        }
      ],
      "name": "setApprovalForAll",
      "outputs": [],
      "stateMutability": "nonpayable",
      "type": "function"
    },
    {
      "inputs": [
        {
          "internalType": "string",
          "name": "_newUrl",
          "type": "string"
        }
      ],
      "name": "setBaseUrl",
      "outputs": [],
      "stateMutability": "nonpayable",
      "type": "function"
    },
    {
      "inputs": [
        {
          "internalType": "bytes4",
          "name": "interfaceId",
          "type": "bytes4"
        }
      ],
      "name": "supportsInterface",
      "outputs": [
        {
          "internalType": "bool",
          "name": "",
          "type": "bool"
        }
      ],
      "stateMutability": "view",
      "type": "function"
    },
    {
      "inputs": [],
      "name": "symbol",
      "outputs": [
        {
          "internalType": "string",
          "name": "",
          "type": "string"
        }
      ],
      "stateMutability": "view",
      "type": "function"
    },
    {
      "inputs": [
        {
          "internalType": "uint256",
          "name": "index",
          "type": "uint256"
        }
      ],
      "name": "tokenByIndex",
      "outputs": [
        {
          "internalType": "uint256",
          "name": "",
          "type": "uint256"
        }
      ],
      "stateMutability": "view",
      "type": "function"
    },
    {
      "inputs": [
        {
          "internalType": "address",
          "name": "owner",
          "type": "address"
        },
        {
          "internalType": "uint256",
          "name": "index",
          "type": "uint256"
        }
      ],
      "name": "tokenOfOwnerByIndex",
      "outputs": [
        {
          "internalType": "uint256",
          "name": "",
          "type": "uint256"
        }
      ],
      "stateMutability": "view",
      "type": "function"
    },
    {
      "inputs": [
        {
          "internalType": "uint256",
          "name": "tokenId",
          "type": "uint256"
        }
      ],
      "name": "tokenURI",
      "outputs": [
        {
          "internalType": "string",
          "name": "",
          "type": "string"
        }
      ],
      "stateMutability": "view",
      "type": "function"
    },
    {
      "inputs": [],
      "name": "totalSupply",
      "outputs": [
        {
          "internalType": "uint256",
          "name": "",
          "type": "uint256"
        }
      ],
      "stateMutability": "view",
      "type": "function"
    },
    {
      "inputs": [
        {
          "internalType": "address",
          "name": "from",
          "type": "address"
        },
        {
          "internalType": "address",
          "name": "to",
          "type": "address"
        },
        {
          "internalType": "uint256",
          "name": "tokenId",
          "type": "uint256"
        }
      ],
      "name": "transferFrom",
      "outputs": [],
      "stateMutability": "nonpayable",
      "type": "function"
    },
    {
      "inputs": [
        {
          "internalType": "address",
          "name": "newOwner",
          "type": "address"
        }
      ],
      "name": "transferOwnership",
      "outputs": [],
      "stateMutability": "nonpayable",
      "type": "function"
    }
  ],
  "bytecode": "0x60806040523480156200001157600080fd5b506040518060400160405280600d81526020017f537469636b6d616e204865726f000000000000000000000000000000000000008152506040518060400160405280600481526020017f4865726f0000000000000000000000000000000000000000000000000000000081525081600090816200008f9190620006bc565b508060019081620000a19190620006bc565b505050620000c4620000b8620000ee60201b60201c565b620000f660201b60201c565b620000e86000801b620000dc620000ee60201b60201c565b620001bc60201b60201c565b620007a3565b600033905090565b6000600a60009054906101000a900473ffffffffffffffffffffffffffffffffffffffff16905081600a60006101000a81548173ffffffffffffffffffffffffffffffffffffffff021916908373ffffffffffffffffffffffffffffffffffffffff1602179055508173ffffffffffffffffffffffffffffffffffffffff168173ffffffffffffffffffffffffffffffffffffffff167f8be0079c531659141344cd1fd0a4f28419497f9722a3daafe3b4186f6b6457e060405160405180910390a35050565b620001ce8282620001d260201b60201c565b5050565b620001e482826200021060201b60201c565b6200020b81600c60008581526020019081526020016000206200030260201b90919060201c565b505050565b6200022282826200033a60201b60201c565b620002fe576001600b600084815260200190815260200160002060000160008373ffffffffffffffffffffffffffffffffffffffff1673ffffffffffffffffffffffffffffffffffffffff16815260200190815260200160002060006101000a81548160ff021916908315150217905550620002a3620000ee60201b60201c565b73ffffffffffffffffffffffffffffffffffffffff168173ffffffffffffffffffffffffffffffffffffffff16837f2f8788117e7eff1d82e926ec794901d17c78024a50270940304540a733656f0d60405160405180910390a45b5050565b600062000332836000018373ffffffffffffffffffffffffffffffffffffffff1660001b620003a560201b60201c565b905092915050565b6000600b600084815260200190815260200160002060000160008373ffffffffffffffffffffffffffffffffffffffff1673ffffffffffffffffffffffffffffffffffffffff16815260200190815260200160002060009054906101000a900460ff16905092915050565b6000620003b983836200041f60201b60201c565b6200041457826000018290806001815401808255809150506001900390600052602060002001600090919091909150558260000180549050836001016000848152602001908152602001600020819055506001905062000419565b600090505b92915050565b600080836001016000848152602001908152602001600020541415905092915050565b600081519050919050565b7f4e487b7100000000000000000000000000000000000000000000000000000000600052604160045260246000fd5b7f4e487b7100000000000000000000000000000000000000000000000000000000600052602260045260246000fd5b60006002820490506001821680620004c457607f821691505b602082108103620004da57620004d96200047c565b5b50919050565b60008190508160005260206000209050919050565b60006020601f8301049050919050565b600082821b905092915050565b600060088302620005447fffffffffffffffffffffffffffffffffffffffffffffffffffffffffffffffff8262000505565b62000550868362000505565b95508019841693508086168417925050509392505050565b6000819050919050565b6000819050919050565b60006200059d62000597620005918462000568565b62000572565b62000568565b9050919050565b6000819050919050565b620005b9836200057c565b620005d1620005c882620005a4565b84845462000512565b825550505050565b600090565b620005e8620005d9565b620005f5818484620005ae565b505050565b5b818110156200061d5762000611600082620005de565b600181019050620005fb565b5050565b601f8211156200066c576200063681620004e0565b6200064184620004f5565b8101602085101562000651578190505b620006696200066085620004f5565b830182620005fa565b50505b505050565b600082821c905092915050565b6000620006916000198460080262000671565b1980831691505092915050565b6000620006ac83836200067e565b9150826002028217905092915050565b620006c78262000442565b67ffffffffffffffff811115620006e357620006e26200044d565b5b620006ef8254620004ab565b620006fc82828562000621565b600060209050601f8311600181146200073457600084156200071f578287015190505b6200072b85826200069e565b8655506200079b565b601f1984166200074486620004e0565b60005b828110156200076e5784890151825560018201915060208501945060208101905062000747565b868310156200078e57848901516200078a601f8916826200067e565b8355505b6001600288020188555050505b505050505050565b6149fb80620007b36000396000f3fe608060405234801561001057600080fd5b50600436106101e55760003560e01c8063715018a61161010f578063c7c3268b116100a2578063d547741f11610071578063d547741f146105c8578063e2a4fad3146105e4578063e985e9c514610614578063f2fde38b14610644576101e5565b8063c7c3268b1461052e578063c87b56dd1461054a578063ca15c8731461057a578063d5391393146105aa576101e5565b806395d89b41116100de57806395d89b41146104ba578063a217fddf146104d8578063a22cb465146104f6578063b88d4fde14610512576101e5565b8063715018a6146104325780638da5cb5b1461043c5780639010d07c1461045a57806391d148541461048a576101e5565b80632f2ff15d1161018757806342842e0e1161015657806342842e0e146103865780634f6ccce7146103a25780636352211e146103d257806370a0823114610402576101e5565b80632f2ff15d146102ee5780632f745c591461030a57806336568abe1461033a57806340c10f1914610356576101e5565b8063095ea7b3116101c3578063095ea7b31461026857806318160ddd1461028457806323b872dd146102a2578063248a9ca3146102be576101e5565b806301ffc9a7146101ea57806306fdde031461021a578063081812fc14610238575b600080fd5b61020460048036038101906101ff91906130d3565b610660565b604051610211919061311b565b60405180910390f35b610222610672565b60405161022f91906131c6565b60405180910390f35b610252600480360381019061024d919061321e565b610704565b60405161025f919061328c565b60405180910390f35b610282600480360381019061027d91906132d3565b61074a565b005b61028c610861565b6040516102999190613322565b60405180910390f35b6102bc60048036038101906102b7919061333d565b61086e565b005b6102d860048036038101906102d391906133c6565b6108ce565b6040516102e59190613402565b60405180910390f35b6103086004803603810190610303919061341d565b6108ee565b005b610324600480360381019061031f91906132d3565b61090f565b6040516103319190613322565b60405180910390f35b610354600480360381019061034f919061341d565b6109b4565b005b610370600480360381019061036b91906132d3565b610a37565b60405161037d9190613322565b60405180910390f35b6103a0600480360381019061039b919061333d565b610b54565b005b6103bc60048036038101906103b7919061321e565b610b74565b6040516103c99190613322565b60405180910390f35b6103ec60048036038101906103e7919061321e565b610be5565b6040516103f9919061328c565b60405180910390f35b61041c6004803603810190610417919061345d565b610c6b565b6040516104299190613322565b60405180910390f35b61043a610d22565b005b610444610d36565b604051610451919061328c565b60405180910390f35b610474600480360381019061046f919061348a565b610d60565b604051610481919061328c565b60405180910390f35b6104a4600480360381019061049f919061341d565b610d8f565b6040516104b1919061311b565b60405180910390f35b6104c2610dfa565b6040516104cf91906131c6565b60405180910390f35b6104e0610e8c565b6040516104ed9190613402565b60405180910390f35b610510600480360381019061050b91906134f6565b610e93565b005b61052c6004803603810190610527919061366b565b610ea9565b005b6105486004803603810190610543919061378f565b610f0b565b005b610564600480360381019061055f919061321e565b610f26565b60405161057191906131c6565b60405180910390f35b610594600480360381019061058f91906133c6565b610f8e565b6040516105a19190613322565b60405180910390f35b6105b2610fb2565b6040516105bf9190613402565b60405180910390f35b6105e260048036038101906105dd919061341d565b610fd6565b005b6105fe60048036038101906105f9919061345d565b610ff7565b60405161060b9190613896565b60405180910390f35b61062e600480360381019061062991906138b8565b6110a5565b60405161063b919061311b565b60405180910390f35b61065e6004803603810190610659919061345d565b611139565b005b600061066b826111bc565b9050919050565b60606000805461068190613927565b80601f01602080910402602001604051908101604052809291908181526020018280546106ad90613927565b80156106fa5780601f106106cf576101008083540402835291602001916106fa565b820191906000526020600020905b8154815290600101906020018083116106dd57829003601f168201915b5050505050905090565b600061070f82611236565b6004600083815260200190815260200160002060009054906101000a900473ffffffffffffffffffffffffffffffffffffffff169050919050565b600061075582610be5565b90508073ffffffffffffffffffffffffffffffffffffffff168373ffffffffffffffffffffffffffffffffffffffff16036107c5576040517f08c379a00000000000000000000000000000000000000000000000000000000081526004016107bc906139ca565b60405180910390fd5b8073ffffffffffffffffffffffffffffffffffffffff166107e4611281565b73ffffffffffffffffffffffffffffffffffffffff16148061081357506108128161080d611281565b6110a5565b5b610852576040517f08c379a000000000000000000000000000000000000000000000000000000000815260040161084990613a5c565b60405180910390fd5b61085c8383611289565b505050565b6000600880549050905090565b61087f610879611281565b82611342565b6108be576040517f08c379a00000000000000000000000000000000000000000000000000000000081526004016108b590613aee565b60405180910390fd5b6108c98383836113d7565b505050565b6000600b6000838152602001908152602001600020600101549050919050565b6108f7826108ce565b610900816116d0565b61090a83836116e4565b505050565b600061091a83610c6b565b821061095b576040517f08c379a000000000000000000000000000000000000000000000000000000000815260040161095290613b80565b60405180910390fd5b600660008473ffffffffffffffffffffffffffffffffffffffff1673ffffffffffffffffffffffffffffffffffffffff168152602001908152602001600020600083815260200190815260200160002054905092915050565b6109bc611281565b73ffffffffffffffffffffffffffffffffffffffff168173ffffffffffffffffffffffffffffffffffffffff1614610a29576040517f08c379a0000000000000000000000000000000000000000000000000000000008152600401610a2090613c12565b60405180910390fd5b610a338282611718565b5050565b6000610a41611281565b73ffffffffffffffffffffffffffffffffffffffff16610a5f610d36565b73ffffffffffffffffffffffffffffffffffffffff161480610aae5750610aad7f9f2df0fed2c77648de5860a4cc508cd0818c85b8b8a1ab4ceeef8d981c8956a6610aa8611281565b610d8f565b5b610aed576040517f08c379a0000000000000000000000000000000000000000000000000000000008152600401610ae490613c7e565b60405180910390fd5b610af7600d61174c565b6000610b03600d611762565b9050610b0f8482611770565b7f4c209b5fc8ad50758f13e2e1088ba56a560dff690a1c6fef26394f4c03821c4f848483604051610b4293929190613c9e565b60405180910390a18091505092915050565b610b6f83838360405180602001604052806000815250610ea9565b505050565b6000610b7e610861565b8210610bbf576040517f08c379a0000000000000000000000000000000000000000000000000000000008152600401610bb690613d47565b60405180910390fd5b60088281548110610bd357610bd2613d67565b5b90600052602060002001549050919050565b600080610bf18361198d565b9050600073ffffffffffffffffffffffffffffffffffffffff168173ffffffffffffffffffffffffffffffffffffffff1603610c62576040517f08c379a0000000000000000000000000000000000000000000000000000000008152600401610c5990613de2565b60405180910390fd5b80915050919050565b60008073ffffffffffffffffffffffffffffffffffffffff168273ffffffffffffffffffffffffffffffffffffffff1603610cdb576040517f08c379a0000000000000000000000000000000000000000000000000000000008152600401610cd290613e74565b60405180910390fd5b600360008373ffffffffffffffffffffffffffffffffffffffff1673ffffffffffffffffffffffffffffffffffffffff168152602001908152602001600020549050919050565b610d2a6119ca565b610d346000611a48565b565b6000600a60009054906101000a900473ffffffffffffffffffffffffffffffffffffffff16905090565b6000610d8782600c6000868152602001908152602001600020611b0e90919063ffffffff16565b905092915050565b6000600b600084815260200190815260200160002060000160008373ffffffffffffffffffffffffffffffffffffffff1673ffffffffffffffffffffffffffffffffffffffff16815260200190815260200160002060009054906101000a900460ff16905092915050565b606060018054610e0990613927565b80601f0160208091040260200160405190810160405280929190818152602001828054610e3590613927565b8015610e825780601f10610e5757610100808354040283529160200191610e82565b820191906000526020600020905b815481529060010190602001808311610e6557829003601f168201915b5050505050905090565b6000801b81565b610ea5610e9e611281565b8383611b28565b5050565b610eba610eb4611281565b83611342565b610ef9576040517f08c379a0000000000000000000000000000000000000000000000000000000008152600401610ef090613aee565b60405180910390fd5b610f0584848484611c94565b50505050565b610f136119ca565b80600e9081610f229190614040565b5050565b6060610f3182611236565b6000610f3b611cf0565b90506000815111610f5b5760405180602001604052806000815250610f86565b80610f6584611d82565b604051602001610f7692919061414e565b6040516020818303038152906040525b915050919050565b6000610fab600c6000848152602001908152602001600020611e50565b9050919050565b7f9f2df0fed2c77648de5860a4cc508cd0818c85b8b8a1ab4ceeef8d981c8956a681565b610fdf826108ce565b610fe8816116d0565b610ff28383611718565b505050565b6060600061100483610c6b565b905060008167ffffffffffffffff81111561102257611021613540565b5b6040519080825280602002602001820160405280156110505781602001602082028036833780820191505090505b50905060005b8281101561109a57611068858261090f565b82828151811061107b5761107a613d67565b5b6020026020010181815250508080611092906141a1565b915050611056565b508092505050919050565b6000600560008473ffffffffffffffffffffffffffffffffffffffff1673ffffffffffffffffffffffffffffffffffffffff16815260200190815260200160002060008373ffffffffffffffffffffffffffffffffffffffff1673ffffffffffffffffffffffffffffffffffffffff16815260200190815260200160002060009054906101000a900460ff16905092915050565b6111416119ca565b600073ffffffffffffffffffffffffffffffffffffffff168173ffffffffffffffffffffffffffffffffffffffff16036111b0576040517f08c379a00000000000000000000000000000000000000000000000000000000081526004016111a79061425b565b60405180910390fd5b6111b981611a48565b50565b60007f5a05180f000000000000000000000000000000000000000000000000000000007bffffffffffffffffffffffffffffffffffffffffffffffffffffffff1916827bffffffffffffffffffffffffffffffffffffffffffffffffffffffff1916148061122f575061122e82611e65565b5b9050919050565b61123f81611edf565b61127e576040517f08c379a000000000000000000000000000000000000000000000000000000000815260040161127590613de2565b60405180910390fd5b50565b600033905090565b816004600083815260200190815260200160002060006101000a81548173ffffffffffffffffffffffffffffffffffffffff021916908373ffffffffffffffffffffffffffffffffffffffff160217905550808273ffffffffffffffffffffffffffffffffffffffff166112fc83610be5565b73ffffffffffffffffffffffffffffffffffffffff167f8c5be1e5ebec7d5bd14f71427d1e84f3dd0314c0f7b2291e5b200ac8c7c3b92560405160405180910390a45050565b60008061134e83610be5565b90508073ffffffffffffffffffffffffffffffffffffffff168473ffffffffffffffffffffffffffffffffffffffff161480611390575061138f81856110a5565b5b806113ce57508373ffffffffffffffffffffffffffffffffffffffff166113b684610704565b73ffffffffffffffffffffffffffffffffffffffff16145b91505092915050565b8273ffffffffffffffffffffffffffffffffffffffff166113f782610be5565b73ffffffffffffffffffffffffffffffffffffffff161461144d576040517f08c379a0000000000000000000000000000000000000000000000000000000008152600401611444906142ed565b60405180910390fd5b600073ffffffffffffffffffffffffffffffffffffffff168273ffffffffffffffffffffffffffffffffffffffff16036114bc576040517f08c379a00000000000000000000000000000000000000000000000000000000081526004016114b39061437f565b60405180910390fd5b6114c98383836001611f20565b8273ffffffffffffffffffffffffffffffffffffffff166114e982610be5565b73ffffffffffffffffffffffffffffffffffffffff161461153f576040517f08c379a0000000000000000000000000000000000000000000000000000000008152600401611536906142ed565b60405180910390fd5b6004600082815260200190815260200160002060006101000a81549073ffffffffffffffffffffffffffffffffffffffff02191690556001600360008573ffffffffffffffffffffffffffffffffffffffff1673ffffffffffffffffffffffffffffffffffffffff168152602001908152602001600020600082825403925050819055506001600360008473ffffffffffffffffffffffffffffffffffffffff1673ffffffffffffffffffffffffffffffffffffffff16815260200190815260200160002060008282540192505081905550816002600083815260200190815260200160002060006101000a81548173ffffffffffffffffffffffffffffffffffffffff021916908373ffffffffffffffffffffffffffffffffffffffff160217905550808273ffffffffffffffffffffffffffffffffffffffff168473ffffffffffffffffffffffffffffffffffffffff167fddf252ad1be2c89b69c2b068fc378daa952ba7f163c4a11628f55a4df523b3ef60405160405180910390a46116cb838383600161207e565b505050565b6116e1816116dc611281565b612084565b50565b6116ee8282612109565b61171381600c60008581526020019081526020016000206121ea90919063ffffffff16565b505050565b611722828261221a565b61174781600c60008581526020019081526020016000206122fc90919063ffffffff16565b505050565b6001816000016000828254019250508190555050565b600081600001549050919050565b600073ffffffffffffffffffffffffffffffffffffffff168273ffffffffffffffffffffffffffffffffffffffff16036117df576040517f08c379a00000000000000000000000000000000000000000000000000000000081526004016117d6906143eb565b60405180910390fd5b6117e881611edf565b15611828576040517f08c379a000000000000000000000000000000000000000000000000000000000815260040161181f90614457565b60405180910390fd5b611836600083836001611f20565b61183f81611edf565b1561187f576040517f08c379a000000000000000000000000000000000000000000000000000000000815260040161187690614457565b60405180910390fd5b6001600360008473ffffffffffffffffffffffffffffffffffffffff1673ffffffffffffffffffffffffffffffffffffffff16815260200190815260200160002060008282540192505081905550816002600083815260200190815260200160002060006101000a81548173ffffffffffffffffffffffffffffffffffffffff021916908373ffffffffffffffffffffffffffffffffffffffff160217905550808273ffffffffffffffffffffffffffffffffffffffff16600073ffffffffffffffffffffffffffffffffffffffff167fddf252ad1be2c89b69c2b068fc378daa952ba7f163c4a11628f55a4df523b3ef60405160405180910390a461198960008383600161207e565b5050565b60006002600083815260200190815260200160002060009054906101000a900473ffffffffffffffffffffffffffffffffffffffff169050919050565b6119d2611281565b73ffffffffffffffffffffffffffffffffffffffff166119f0610d36565b73ffffffffffffffffffffffffffffffffffffffff1614611a46576040517f08c379a0000000000000000000000000000000000000000000000000000000008152600401611a3d906144c3565b60405180910390fd5b565b6000600a60009054906101000a900473ffffffffffffffffffffffffffffffffffffffff16905081600a60006101000a81548173ffffffffffffffffffffffffffffffffffffffff021916908373ffffffffffffffffffffffffffffffffffffffff1602179055508173ffffffffffffffffffffffffffffffffffffffff168173ffffffffffffffffffffffffffffffffffffffff167f8be0079c531659141344cd1fd0a4f28419497f9722a3daafe3b4186f6b6457e060405160405180910390a35050565b6000611b1d836000018361232c565b60001c905092915050565b8173ffffffffffffffffffffffffffffffffffffffff168373ffffffffffffffffffffffffffffffffffffffff1603611b96576040517f08c379a0000000000000000000000000000000000000000000000000000000008152600401611b8d9061452f565b60405180910390fd5b80600560008573ffffffffffffffffffffffffffffffffffffffff1673ffffffffffffffffffffffffffffffffffffffff16815260200190815260200160002060008473ffffffffffffffffffffffffffffffffffffffff1673ffffffffffffffffffffffffffffffffffffffff16815260200190815260200160002060006101000a81548160ff0219169083151502179055508173ffffffffffffffffffffffffffffffffffffffff168373ffffffffffffffffffffffffffffffffffffffff167f17307eab39ab6107e8899845ad3d59bd9653f200f220920489ca2b5937696c3183604051611c87919061311b565b60405180910390a3505050565b611c9f8484846113d7565b611cab84848484612357565b611cea576040517f08c379a0000000000000000000000000000000000000000000000000000000008152600401611ce1906145c1565b60405180910390fd5b50505050565b6060600e8054611cff90613927565b80601f0160208091040260200160405190810160405280929190818152602001828054611d2b90613927565b8015611d785780601f10611d4d57610100808354040283529160200191611d78565b820191906000526020600020905b815481529060010190602001808311611d5b57829003601f168201915b5050505050905090565b606060006001611d91846124de565b01905060008167ffffffffffffffff811115611db057611daf613540565b5b6040519080825280601f01601f191660200182016040528015611de25781602001600182028036833780820191505090505b509050600082602001820190505b600115611e45578080600190039150507f3031323334353637383961626364656600000000000000000000000000000000600a86061a8153600a8581611e3957611e386145e1565b5b04945060008503611df0575b819350505050919050565b6000611e5e82600001612631565b9050919050565b60007f7965db0b000000000000000000000000000000000000000000000000000000007bffffffffffffffffffffffffffffffffffffffffffffffffffffffff1916827bffffffffffffffffffffffffffffffffffffffffffffffffffffffff19161480611ed85750611ed782612642565b5b9050919050565b60008073ffffffffffffffffffffffffffffffffffffffff16611f018361198d565b73ffffffffffffffffffffffffffffffffffffffff1614159050919050565b611f2c848484846126bc565b6001811115611f70576040517f08c379a0000000000000000000000000000000000000000000000000000000008152600401611f6790614682565b60405180910390fd5b6000829050600073ffffffffffffffffffffffffffffffffffffffff168573ffffffffffffffffffffffffffffffffffffffff1603611fb757611fb2816127e2565b611ff6565b8373ffffffffffffffffffffffffffffffffffffffff168573ffffffffffffffffffffffffffffffffffffffff1614611ff557611ff4858261282b565b5b5b600073ffffffffffffffffffffffffffffffffffffffff168473ffffffffffffffffffffffffffffffffffffffff16036120385761203381612998565b612077565b8473ffffffffffffffffffffffffffffffffffffffff168473ffffffffffffffffffffffffffffffffffffffff1614612076576120758482612a69565b5b5b5050505050565b50505050565b61208e8282610d8f565b6121055761209b81612ae8565b6120a98360001c6020612b15565b6040516020016120ba92919061473a565b6040516020818303038152906040526040517f08c379a00000000000000000000000000000000000000000000000000000000081526004016120fc91906131c6565b60405180910390fd5b5050565b6121138282610d8f565b6121e6576001600b600084815260200190815260200160002060000160008373ffffffffffffffffffffffffffffffffffffffff1673ffffffffffffffffffffffffffffffffffffffff16815260200190815260200160002060006101000a81548160ff02191690831515021790555061218b611281565b73ffffffffffffffffffffffffffffffffffffffff168173ffffffffffffffffffffffffffffffffffffffff16837f2f8788117e7eff1d82e926ec794901d17c78024a50270940304540a733656f0d60405160405180910390a45b5050565b6000612212836000018373ffffffffffffffffffffffffffffffffffffffff1660001b612d51565b905092915050565b6122248282610d8f565b156122f8576000600b600084815260200190815260200160002060000160008373ffffffffffffffffffffffffffffffffffffffff1673ffffffffffffffffffffffffffffffffffffffff16815260200190815260200160002060006101000a81548160ff02191690831515021790555061229d611281565b73ffffffffffffffffffffffffffffffffffffffff168173ffffffffffffffffffffffffffffffffffffffff16837ff6391f5c32d9c69d2a47ea670b442974b53935d1edc7fd64eb21e047a839171b60405160405180910390a45b5050565b6000612324836000018373ffffffffffffffffffffffffffffffffffffffff1660001b612dc1565b905092915050565b600082600001828154811061234457612343613d67565b5b9060005260206000200154905092915050565b60006123788473ffffffffffffffffffffffffffffffffffffffff16612ed5565b156124d1578373ffffffffffffffffffffffffffffffffffffffff1663150b7a026123a1611281565b8786866040518563ffffffff1660e01b81526004016123c394939291906147c9565b6020604051808303816000875af19250505080156123ff57506040513d601f19601f820116820180604052508101906123fc919061482a565b60015b612481573d806000811461242f576040519150601f19603f3d011682016040523d82523d6000602084013e612434565b606091505b506000815103612479576040517f08c379a0000000000000000000000000000000000000000000000000000000008152600401612470906145c1565b60405180910390fd5b805181602001fd5b63150b7a0260e01b7bffffffffffffffffffffffffffffffffffffffffffffffffffffffff1916817bffffffffffffffffffffffffffffffffffffffffffffffffffffffff1916149150506124d6565b600190505b949350505050565b600080600090507a184f03e93ff9f4daa797ed6e38ed64bf6a1f010000000000000000831061253c577a184f03e93ff9f4daa797ed6e38ed64bf6a1f0100000000000000008381612532576125316145e1565b5b0492506040810190505b6d04ee2d6d415b85acef81000000008310612579576d04ee2d6d415b85acef8100000000838161256f5761256e6145e1565b5b0492506020810190505b662386f26fc1000083106125a857662386f26fc10000838161259e5761259d6145e1565b5b0492506010810190505b6305f5e10083106125d1576305f5e10083816125c7576125c66145e1565b5b0492506008810190505b61271083106125f65761271083816125ec576125eb6145e1565b5b0492506004810190505b60648310612619576064838161260f5761260e6145e1565b5b0492506002810190505b600a8310612628576001810190505b80915050919050565b600081600001805490509050919050565b60007f780e9d63000000000000000000000000000000000000000000000000000000007bffffffffffffffffffffffffffffffffffffffffffffffffffffffff1916827bffffffffffffffffffffffffffffffffffffffffffffffffffffffff191614806126b557506126b482612ef8565b5b9050919050565b60018111156127dc57600073ffffffffffffffffffffffffffffffffffffffff168473ffffffffffffffffffffffffffffffffffffffff16146127505780600360008673ffffffffffffffffffffffffffffffffffffffff1673ffffffffffffffffffffffffffffffffffffffff16815260200190815260200160002060008282546127489190614857565b925050819055505b600073ffffffffffffffffffffffffffffffffffffffff168373ffffffffffffffffffffffffffffffffffffffff16146127db5780600360008573ffffffffffffffffffffffffffffffffffffffff1673ffffffffffffffffffffffffffffffffffffffff16815260200190815260200160002060008282546127d3919061488b565b925050819055505b5b50505050565b6008805490506009600083815260200190815260200160002081905550600881908060018154018082558091505060019003906000526020600020016000909190919091505550565b6000600161283884610c6b565b6128429190614857565b9050600060076000848152602001908152602001600020549050818114612927576000600660008673ffffffffffffffffffffffffffffffffffffffff1673ffffffffffffffffffffffffffffffffffffffff168152602001908152602001600020600084815260200190815260200160002054905080600660008773ffffffffffffffffffffffffffffffffffffffff1673ffffffffffffffffffffffffffffffffffffffff168152602001908152602001600020600084815260200190815260200160002081905550816007600083815260200190815260200160002081905550505b6007600084815260200190815260200160002060009055600660008573ffffffffffffffffffffffffffffffffffffffff1673ffffffffffffffffffffffffffffffffffffffff16815260200190815260200160002060008381526020019081526020016000206000905550505050565b600060016008805490506129ac9190614857565b90506000600960008481526020019081526020016000205490506000600883815481106129dc576129db613d67565b5b9060005260206000200154905080600883815481106129fe576129fd613d67565b5b906000526020600020018190555081600960008381526020019081526020016000208190555060096000858152602001908152602001600020600090556008805480612a4d57612a4c6148bf565b5b6001900381819060005260206000200160009055905550505050565b6000612a7483610c6b565b905081600660008573ffffffffffffffffffffffffffffffffffffffff1673ffffffffffffffffffffffffffffffffffffffff168152602001908152602001600020600083815260200190815260200160002081905550806007600084815260200190815260200160002081905550505050565b6060612b0e8273ffffffffffffffffffffffffffffffffffffffff16601460ff16612b15565b9050919050565b606060006002836002612b2891906148ee565b612b32919061488b565b67ffffffffffffffff811115612b4b57612b4a613540565b5b6040519080825280601f01601f191660200182016040528015612b7d5781602001600182028036833780820191505090505b5090507f300000000000000000000000000000000000000000000000000000000000000081600081518110612bb557612bb4613d67565b5b60200101907effffffffffffffffffffffffffffffffffffffffffffffffffffffffffffff1916908160001a9053507f780000000000000000000000000000000000000000000000000000000000000081600181518110612c1957612c18613d67565b5b60200101907effffffffffffffffffffffffffffffffffffffffffffffffffffffffffffff1916908160001a90535060006001846002612c5991906148ee565b612c63919061488b565b90505b6001811115612d03577f3031323334353637383961626364656600000000000000000000000000000000600f861660108110612ca557612ca4613d67565b5b1a60f81b828281518110612cbc57612cbb613d67565b5b60200101907effffffffffffffffffffffffffffffffffffffffffffffffffffffffffffff1916908160001a905350600485901c945080612cfc90614930565b9050612c66565b5060008414612d47576040517f08c379a0000000000000000000000000000000000000000000000000000000008152600401612d3e906149a5565b60405180910390fd5b8091505092915050565b6000612d5d8383612fda565b612db6578260000182908060018154018082558091505060019003906000526020600020016000909190919091505582600001805490508360010160008481526020019081526020016000208190555060019050612dbb565b600090505b92915050565b60008083600101600084815260200190815260200160002054905060008114612ec9576000600182612df39190614857565b9050600060018660000180549050612e0b9190614857565b9050818114612e7a576000866000018281548110612e2c57612e2b613d67565b5b9060005260206000200154905080876000018481548110612e5057612e4f613d67565b5b90600052602060002001819055508387600101600083815260200190815260200160002081905550505b85600001805480612e8e57612e8d6148bf565b5b600190038181906000526020600020016000905590558560010160008681526020019081526020016000206000905560019350505050612ecf565b60009150505b92915050565b6000808273ffffffffffffffffffffffffffffffffffffffff163b119050919050565b60007f80ac58cd000000000000000000000000000000000000000000000000000000007bffffffffffffffffffffffffffffffffffffffffffffffffffffffff1916827bffffffffffffffffffffffffffffffffffffffffffffffffffffffff19161480612fc357507f5b5e139f000000000000000000000000000000000000000000000000000000007bffffffffffffffffffffffffffffffffffffffffffffffffffffffff1916827bffffffffffffffffffffffffffffffffffffffffffffffffffffffff1916145b80612fd35750612fd282612ffd565b5b9050919050565b600080836001016000848152602001908152602001600020541415905092915050565b60007f01ffc9a7000000000000000000000000000000000000000000000000000000007bffffffffffffffffffffffffffffffffffffffffffffffffffffffff1916827bffffffffffffffffffffffffffffffffffffffffffffffffffffffff1916149050919050565b6000604051905090565b600080fd5b600080fd5b60007fffffffff0000000000000000000000000000000000000000000000000000000082169050919050565b6130b08161307b565b81146130bb57600080fd5b50565b6000813590506130cd816130a7565b92915050565b6000602082840312156130e9576130e8613071565b5b60006130f7848285016130be565b91505092915050565b60008115159050919050565b61311581613100565b82525050565b6000602082019050613130600083018461310c565b92915050565b600081519050919050565b600082825260208201905092915050565b60005b83811015613170578082015181840152602081019050613155565b60008484015250505050565b6000601f19601f8301169050919050565b600061319882613136565b6131a28185613141565b93506131b2818560208601613152565b6131bb8161317c565b840191505092915050565b600060208201905081810360008301526131e0818461318d565b905092915050565b6000819050919050565b6131fb816131e8565b811461320657600080fd5b50565b600081359050613218816131f2565b92915050565b60006020828403121561323457613233613071565b5b600061324284828501613209565b91505092915050565b600073ffffffffffffffffffffffffffffffffffffffff82169050919050565b60006132768261324b565b9050919050565b6132868161326b565b82525050565b60006020820190506132a1600083018461327d565b92915050565b6132b08161326b565b81146132bb57600080fd5b50565b6000813590506132cd816132a7565b92915050565b600080604083850312156132ea576132e9613071565b5b60006132f8858286016132be565b925050602061330985828601613209565b9150509250929050565b61331c816131e8565b82525050565b60006020820190506133376000830184613313565b92915050565b60008060006060848603121561335657613355613071565b5b6000613364868287016132be565b9350506020613375868287016132be565b925050604061338686828701613209565b9150509250925092565b6000819050919050565b6133a381613390565b81146133ae57600080fd5b50565b6000813590506133c08161339a565b92915050565b6000602082840312156133dc576133db613071565b5b60006133ea848285016133b1565b91505092915050565b6133fc81613390565b82525050565b600060208201905061341760008301846133f3565b92915050565b6000806040838503121561343457613433613071565b5b6000613442858286016133b1565b9250506020613453858286016132be565b9150509250929050565b60006020828403121561347357613472613071565b5b6000613481848285016132be565b91505092915050565b600080604083850312156134a1576134a0613071565b5b60006134af858286016133b1565b92505060206134c085828601613209565b9150509250929050565b6134d381613100565b81146134de57600080fd5b50565b6000813590506134f0816134ca565b92915050565b6000806040838503121561350d5761350c613071565b5b600061351b858286016132be565b925050602061352c858286016134e1565b9150509250929050565b600080fd5b600080fd5b7f4e487b7100000000000000000000000000000000000000000000000000000000600052604160045260246000fd5b6135788261317c565b810181811067ffffffffffffffff8211171561359757613596613540565b5b80604052505050565b60006135aa613067565b90506135b6828261356f565b919050565b600067ffffffffffffffff8211156135d6576135d5613540565b5b6135df8261317c565b9050602081019050919050565b82818337600083830152505050565b600061360e613609846135bb565b6135a0565b90508281526020810184848401111561362a5761362961353b565b5b6136358482856135ec565b509392505050565b600082601f83011261365257613651613536565b5b81356136628482602086016135fb565b91505092915050565b6000806000806080858703121561368557613684613071565b5b6000613693878288016132be565b94505060206136a4878288016132be565b93505060406136b587828801613209565b925050606085013567ffffffffffffffff8111156136d6576136d5613076565b5b6136e28782880161363d565b91505092959194509250565b600067ffffffffffffffff82111561370957613708613540565b5b6137128261317c565b9050602081019050919050565b600061373261372d846136ee565b6135a0565b90508281526020810184848401111561374e5761374d61353b565b5b6137598482856135ec565b509392505050565b600082601f83011261377657613775613536565b5b813561378684826020860161371f565b91505092915050565b6000602082840312156137a5576137a4613071565b5b600082013567ffffffffffffffff8111156137c3576137c2613076565b5b6137cf84828501613761565b91505092915050565b600081519050919050565b600082825260208201905092915050565b6000819050602082019050919050565b61380d816131e8565b82525050565b600061381f8383613804565b60208301905092915050565b6000602082019050919050565b6000613843826137d8565b61384d81856137e3565b9350613858836137f4565b8060005b838110156138895781516138708882613813565b975061387b8361382b565b92505060018101905061385c565b5085935050505092915050565b600060208201905081810360008301526138b08184613838565b905092915050565b600080604083850312156138cf576138ce613071565b5b60006138dd858286016132be565b92505060206138ee858286016132be565b9150509250929050565b7f4e487b7100000000000000000000000000000000000000000000000000000000600052602260045260246000fd5b6000600282049050600182168061393f57607f821691505b602082108103613952576139516138f8565b5b50919050565b7f4552433732313a20617070726f76616c20746f2063757272656e74206f776e6560008201527f7200000000000000000000000000000000000000000000000000000000000000602082015250565b60006139b4602183613141565b91506139bf82613958565b604082019050919050565b600060208201905081810360008301526139e3816139a7565b9050919050565b7f4552433732313a20617070726f76652063616c6c6572206973206e6f7420746f60008201527f6b656e206f776e6572206f7220617070726f76656420666f7220616c6c000000602082015250565b6000613a46603d83613141565b9150613a51826139ea565b604082019050919050565b60006020820190508181036000830152613a7581613a39565b9050919050565b7f4552433732313a2063616c6c6572206973206e6f7420746f6b656e206f776e6560008201527f72206f7220617070726f76656400000000000000000000000000000000000000602082015250565b6000613ad8602d83613141565b9150613ae382613a7c565b604082019050919050565b60006020820190508181036000830152613b0781613acb565b9050919050565b7f455243373231456e756d657261626c653a206f776e657220696e646578206f7560008201527f74206f6620626f756e6473000000000000000000000000000000000000000000602082015250565b6000613b6a602b83613141565b9150613b7582613b0e565b604082019050919050565b60006020820190508181036000830152613b9981613b5d565b9050919050565b7f416363657373436f6e74726f6c3a2063616e206f6e6c792072656e6f756e636560008201527f20726f6c657320666f722073656c660000000000000000000000000000000000602082015250565b6000613bfc602f83613141565b9150613c0782613ba0565b604082019050919050565b60006020820190508181036000830152613c2b81613bef565b9050919050565b7f43616c6c6572206973206e6f742061206d696e74657200000000000000000000600082015250565b6000613c68601683613141565b9150613c7382613c32565b602082019050919050565b60006020820190508181036000830152613c9781613c5b565b9050919050565b6000606082019050613cb3600083018661327d565b613cc06020830185613313565b613ccd6040830184613313565b949350505050565b7f455243373231456e756d657261626c653a20676c6f62616c20696e646578206f60008201527f7574206f6620626f756e64730000000000000000000000000000000000000000602082015250565b6000613d31602c83613141565b9150613d3c82613cd5565b604082019050919050565b60006020820190508181036000830152613d6081613d24565b9050919050565b7f4e487b7100000000000000000000000000000000000000000000000000000000600052603260045260246000fd5b7f4552433732313a20696e76616c696420746f6b656e2049440000000000000000600082015250565b6000613dcc601883613141565b9150613dd782613d96565b602082019050919050565b60006020820190508181036000830152613dfb81613dbf565b9050919050565b7f4552433732313a2061646472657373207a65726f206973206e6f74206120766160008201527f6c6964206f776e65720000000000000000000000000000000000000000000000602082015250565b6000613e5e602983613141565b9150613e6982613e02565b604082019050919050565b60006020820190508181036000830152613e8d81613e51565b9050919050565b60008190508160005260206000209050919050565b60006020601f8301049050919050565b600082821b905092915050565b600060088302613ef67fffffffffffffffffffffffffffffffffffffffffffffffffffffffffffffffff82613eb9565b613f008683613eb9565b95508019841693508086168417925050509392505050565b6000819050919050565b6000613f3d613f38613f33846131e8565b613f18565b6131e8565b9050919050565b6000819050919050565b613f5783613f22565b613f6b613f6382613f44565b848454613ec6565b825550505050565b600090565b613f80613f73565b613f8b818484613f4e565b505050565b5b81811015613faf57613fa4600082613f78565b600181019050613f91565b5050565b601f821115613ff457613fc581613e94565b613fce84613ea9565b81016020851015613fdd578190505b613ff1613fe985613ea9565b830182613f90565b50505b505050565b600082821c905092915050565b600061401760001984600802613ff9565b1980831691505092915050565b60006140308383614006565b9150826002028217905092915050565b61404982613136565b67ffffffffffffffff81111561406257614061613540565b5b61406c8254613927565b614077828285613fb3565b600060209050601f8311600181146140aa5760008415614098578287015190505b6140a28582614024565b86555061410a565b601f1984166140b886613e94565b60005b828110156140e0578489015182556001820191506020850194506020810190506140bb565b868310156140fd57848901516140f9601f891682614006565b8355505b6001600288020188555050505b505050505050565b600081905092915050565b600061412882613136565b6141328185614112565b9350614142818560208601613152565b80840191505092915050565b600061415a828561411d565b9150614166828461411d565b91508190509392505050565b7f4e487b7100000000000000000000000000000000000000000000000000000000600052601160045260246000fd5b60006141ac826131e8565b91507fffffffffffffffffffffffffffffffffffffffffffffffffffffffffffffffff82036141de576141dd614172565b5b600182019050919050565b7f4f776e61626c653a206e6577206f776e657220697320746865207a65726f206160008201527f6464726573730000000000000000000000000000000000000000000000000000602082015250565b6000614245602683613141565b9150614250826141e9565b604082019050919050565b6000602082019050818103600083015261427481614238565b9050919050565b7f4552433732313a207472616e736665722066726f6d20696e636f72726563742060008201527f6f776e6572000000000000000000000000000000000000000000000000000000602082015250565b60006142d7602583613141565b91506142e28261427b565b604082019050919050565b60006020820190508181036000830152614306816142ca565b9050919050565b7f4552433732313a207472616e7366657220746f20746865207a65726f2061646460008201527f7265737300000000000000000000000000000000000000000000000000000000602082015250565b6000614369602483613141565b91506143748261430d565b604082019050919050565b600060208201905081810360008301526143988161435c565b9050919050565b7f4552433732313a206d696e7420746f20746865207a65726f2061646472657373600082015250565b60006143d5602083613141565b91506143e08261439f565b602082019050919050565b60006020820190508181036000830152614404816143c8565b9050919050565b7f4552433732313a20746f6b656e20616c7265616479206d696e74656400000000600082015250565b6000614441601c83613141565b915061444c8261440b565b602082019050919050565b6000602082019050818103600083015261447081614434565b9050919050565b7f4f776e61626c653a2063616c6c6572206973206e6f7420746865206f776e6572600082015250565b60006144ad602083613141565b91506144b882614477565b602082019050919050565b600060208201905081810360008301526144dc816144a0565b9050919050565b7f4552433732313a20617070726f766520746f2063616c6c657200000000000000600082015250565b6000614519601983613141565b9150614524826144e3565b602082019050919050565b600060208201905081810360008301526145488161450c565b9050919050565b7f4552433732313a207472616e7366657220746f206e6f6e20455243373231526560008201527f63656976657220696d706c656d656e7465720000000000000000000000000000602082015250565b60006145ab603283613141565b91506145b68261454f565b604082019050919050565b600060208201905081810360008301526145da8161459e565b9050919050565b7f4e487b7100000000000000000000000000000000000000000000000000000000600052601260045260246000fd5b7f455243373231456e756d657261626c653a20636f6e736563757469766520747260008201527f616e7366657273206e6f7420737570706f727465640000000000000000000000602082015250565b600061466c603583613141565b915061467782614610565b604082019050919050565b6000602082019050818103600083015261469b8161465f565b9050919050565b7f416363657373436f6e74726f6c3a206163636f756e7420000000000000000000600082015250565b60006146d8601783614112565b91506146e3826146a2565b601782019050919050565b7f206973206d697373696e6720726f6c6520000000000000000000000000000000600082015250565b6000614724601183614112565b915061472f826146ee565b601182019050919050565b6000614745826146cb565b9150614751828561411d565b915061475c82614717565b9150614768828461411d565b91508190509392505050565b600081519050919050565b600082825260208201905092915050565b600061479b82614774565b6147a5818561477f565b93506147b5818560208601613152565b6147be8161317c565b840191505092915050565b60006080820190506147de600083018761327d565b6147eb602083018661327d565b6147f86040830185613313565b818103606083015261480a8184614790565b905095945050505050565b600081519050614824816130a7565b92915050565b6000602082840312156148405761483f613071565b5b600061484e84828501614815565b91505092915050565b6000614862826131e8565b915061486d836131e8565b925082820390508181111561488557614884614172565b5b92915050565b6000614896826131e8565b91506148a1836131e8565b92508282019050808211156148b9576148b8614172565b5b92915050565b7f4e487b7100000000000000000000000000000000000000000000000000000000600052603160045260246000fd5b60006148f9826131e8565b9150614904836131e8565b9250828202614912816131e8565b9150828204841483151761492957614928614172565b5b5092915050565b600061493b826131e8565b91506000820361494e5761494d614172565b5b600182039050919050565b7f537472696e67733a20686578206c656e67746820696e73756666696369656e74600082015250565b600061498f602083613141565b915061499a82614959565b602082019050919050565b600060208201905081810360008301526149be81614982565b905091905056fea26469706673582212201c634dc34b20d5b433cc59f571dc570e62b113e25296f08d84519994f5ba65d464736f6c63430008130033",
  "linkReferences": {},
  "deployedLinkReferences": {}
}